:020000040000FA
:040000000EEF00F00F
:020004000000FA
:0400080029EF00F0EC
:0800180030EF00F0000E936EC2
:10002000000E966E070E846E840ED56EF28EF28AE6
:10003000000E016E0E0EC16E000EC26E080EC06E76
:10004000C2809E9C9D8C9F9CF28CC282D08E27EF9A
:1000500000F038EC00F001C081FFF294F28E120043
:100060009E9CF28CC4CF01F001C081FFC2821200BD
:10007000FF0E026EFF0E036E0B0E046E022E3EEF9D
:1000800000F0032E3EEF00F0042E3EEF00F01200D1
:020000040030CA
:010001000CF2
:0100020018E5
:010003001EDE
:010005008179
:010006008178
:00000001FF
